{
  "contractName": "Historywall",
  "abi": [
    {
      "constant": false,
      "inputs": [
        {
          "name": "_onOff",
          "type": "bool"
        }
      ],
      "name": "controlSwitch",
      "outputs": [],
      "payable": false,
      "stateMutability": "nonpayable",
      "type": "function"
    },
    {
      "constant": true,
      "inputs": [],
      "name": "owner",
      "outputs": [
        {
          "name": "",
          "type": "address"
        }
      ],
      "payable": false,
      "stateMutability": "view",
      "type": "function"
    },
    {
      "constant": true,
      "inputs": [
        {
          "name": "",
          "type": "uint256"
        }
      ],
      "name": "blockshot",
      "outputs": [
        {
          "name": "",
          "type": "uint256"
        }
      ],
      "payable": false,
      "stateMutability": "view",
      "type": "function"
    },
    {
      "constant": false,
      "inputs": [
        {
          "name": "_newOwner",
          "type": "address"
        }
      ],
      "name": "changeOwner",
      "outputs": [],
      "payable": false,
      "stateMutability": "nonpayable",
      "type": "function"
    },
    {
      "constant": true,
      "inputs": [],
      "name": "totalEvents",
      "outputs": [
        {
          "name": "",
          "type": "uint256"
        }
      ],
      "payable": false,
      "stateMutability": "view",
      "type": "function"
    },
    {
      "constant": true,
      "inputs": [],
      "name": "running",
      "outputs": [
        {
          "name": "",
          "type": "bool"
        }
      ],
      "payable": false,
      "stateMutability": "view",
      "type": "function"
    },
    {
      "inputs": [
        {
          "name": "_historyevent",
          "type": "string"
        }
      ],
      "payable": false,
      "stateMutability": "nonpayable",
      "type": "constructor"
    },
    {
      "anonymous": false,
      "inputs": [
        {
          "indexed": false,
          "name": "writeSender",
          "type": "address"
        },
        {
          "indexed": false,
          "name": "messages",
          "type": "string"
        },
        {
          "indexed": false,
          "name": "totalevents",
          "type": "uint256"
        }
      ],
      "name": "LogRecordedEvents",
      "type": "event"
    },
    {
      "anonymous": false,
      "inputs": [
        {
          "indexed": false,
          "name": "switchStatus",
          "type": "bool"
        }
      ],
      "name": "LogSwitchStatus",
      "type": "event"
    },
    {
      "anonymous": false,
      "inputs": [
        {
          "indexed": false,
          "name": "oldOwner",
          "type": "address"
        },
        {
          "indexed": false,
          "name": "newOwner",
          "type": "address"
        }
      ],
      "name": "LogNewOwner",
      "type": "event"
    },
    {
      "anonymous": false,
      "inputs": [
        {
          "indexed": false,
          "name": "deleteOwner",
          "type": "address"
        }
      ],
      "name": "LogDeleteOwner",
      "type": "event"
    }
  ],
  "bytecode": "0x6060604052341561000f57600080fd5b60405161061738038061061783398101604052808051820191905050336000806101000a81548173ffffffffffffffffffffffffffffffffffffffff021916908373ffffffffffffffffffffffffffffffffffffffff1602179055506001600060146101000a81548160ff021916908315150217905550600180600082825401925050819055507f4ab3b6ce5cc78881cce33376258da9ffd76c89b1effd221816f79006322cf19b3382600154604051808473ffffffffffffffffffffffffffffffffffffffff1673ffffffffffffffffffffffffffffffffffffffff16815260200180602001838152602001828103825284818151815260200191508051906020019080838360005b83811015610134578082015181840152602081019050610119565b50505050905090810190601f1680156101615780820380516001836020036101000a031916815260200191505b5094505050505060405180910390a143600260006001548152602001908152602001600020819055505061047d8061019a6000396000f300606060405260043610610078576000357c0100000000000000000000000000000000000000000000000000000000900463ffffffff1680631b2093d11461007d5780638da5cb5b146100a25780639167a39d146100f7578063a6f9dae11461012e578063ba87068614610167578063d85bd52614610190575b600080fd5b341561008857600080fd5b6100a0600480803515159060200190919050506101bd565b005b34156100ad57600080fd5b6100b561027f565b604051808273ffffffffffffffffffffffffffffffffffffffff1673ffffffffffffffffffffffffffffffffffffffff16815260200191505060405180910390f35b341561010257600080fd5b61011860048080359060200190919050506102a4565b6040518082815260200191505060405180910390f35b341561013957600080fd5b610165600480803573ffffffffffffffffffffffffffffffffffffffff169060200190919050506102bc565b005b341561017257600080fd5b61017a610438565b6040518082815260200191505060405180910390f35b341561019b57600080fd5b6101a361043e565b604051808215151515815260200191505060405180910390f35b3373ffffffffffffffffffffffffffffffffffffffff166000809054906101000a900473ffffffffffffffffffffffffffffffffffffffff1673ffffffffffffffffffffffffffffffffffffffff1614151561021857600080fd5b80600060146101000a81548160ff0219169083151502179055507febc7dab65fbc6c64ef4127ee30fe3644ecfa7f2fad7cfd9d376324f462314354600060149054906101000a900460ff16604051808215151515815260200191505060405180910390a150565b6000809054906101000a900473ffffffffffffffffffffffffffffffffffffffff1681565b60026020528060005260406000206000915090505481565b3373ffffffffffffffffffffffffffffffffffffffff166000809054906101000a900473ffffffffffffffffffffffffffffffffffffffff1673ffffffffffffffffffffffffffffffffffffffff1614151561031757600080fd5b60008173ffffffffffffffffffffffffffffffffffffffff161415151561033d57600080fd5b7f1f8d7d25344642d919d55999e4664aa452a5f424bc0936ceb9c2b300db7dcbd96000809054906101000a900473ffffffffffffffffffffffffffffffffffffffff1682604051808373ffffffffffffffffffffffffffffffffffffffff1673ffffffffffffffffffffffffffffffffffffffff1681526020018273ffffffffffffffffffffffffffffffffffffffff1673ffffffffffffffffffffffffffffffffffffffff1681526020019250505060405180910390a1806000806101000a81548173ffffffffffffffffffffffffffffffffffffffff021916908373ffffffffffffffffffffffffffffffffffffffff16021790555050565b60015481565b600060149054906101000a900460ff16815600a165627a7a72305820af3af38ff9595033642299e6ec779012877f1ce71d974216a076e636ffd7a5740029",
  "source": "pragma solidity ^0.4.20;\n\nimport \"./Stoppable.sol\";\n\n/**\n *Base for contracts that ability to record on the History Wall.\n *\n *license GNU General Public License 3.0, http:www.gnu.org/licenses/gpl-3.0.en.html\n *@author Sangphil Kim, https://www.linkedin.com/in/sangphilkim/\n */\n\ncontract Historywall is Stoppable {\n\n    event LogRecordedEvents(address writeSender, string messages, uint totalevents);\n\n    uint public totalEvents;\n\n    mapping (uint => uint) public blockshot;\n\n    function Historywall(string _historyevent) public {\n        totalEvents += 1;\n\n        emit LogRecordedEvents(msg.sender, _historyevent, totalEvents);\n        blockshot[totalEvents] = block.number;\n\n    }\n}\n",
  "sourcePath": "/Users/sangphilkim/Smart/historywall/contracts/Historywall.sol",
  "compiler": {
    "name": "solc",
    "version": "0.4.21+commit.dfe3193c.Emscripten.clang"
  },
  "schemaVersion": "2.0.0",
  "updatedAt": "2018-05-02T15:23:57.354Z"
}