{
  "contractName": "Owned",
  "abi": [
    {
      "constant": true,
      "inputs": [],
      "name": "owner",
      "outputs": [
        {
          "name": "",
          "type": "address"
        }
      ],
      "payable": false,
      "stateMutability": "view",
      "type": "function"
    },
    {
      "inputs": [],
      "payable": false,
      "stateMutability": "nonpayable",
      "type": "constructor"
    },
    {
      "anonymous": false,
      "inputs": [
        {
          "indexed": false,
          "name": "oldOwner",
          "type": "address"
        },
        {
          "indexed": false,
          "name": "newOwner",
          "type": "address"
        }
      ],
      "name": "LogNewOwner",
      "type": "event"
    },
    {
      "anonymous": false,
      "inputs": [
        {
          "indexed": false,
          "name": "deleteOwner",
          "type": "address"
        }
      ],
      "name": "LogDeleteOwner",
      "type": "event"
    },
    {
      "constant": false,
      "inputs": [
        {
          "name": "_newOwner",
          "type": "address"
        }
      ],
      "name": "changeOwner",
      "outputs": [],
      "payable": false,
      "stateMutability": "nonpayable",
      "type": "function"
    }
  ],
  "bytecode": "0x6060604052341561000f57600080fd5b336000806101000a81548173ffffffffffffffffffffffffffffffffffffffff021916908373ffffffffffffffffffffffffffffffffffffffff1602179055506102ac8061005e6000396000f30060606040526004361061004c576000357c0100000000000000000000000000000000000000000000000000000000900463ffffffff1680638da5cb5b14610051578063a6f9dae1146100a6575b600080fd5b341561005c57600080fd5b6100646100df565b604051808273ffffffffffffffffffffffffffffffffffffffff1673ffffffffffffffffffffffffffffffffffffffff16815260200191505060405180910390f35b34156100b157600080fd5b6100dd600480803573ffffffffffffffffffffffffffffffffffffffff16906020019091905050610104565b005b6000809054906101000a900473ffffffffffffffffffffffffffffffffffffffff1681565b3373ffffffffffffffffffffffffffffffffffffffff166000809054906101000a900473ffffffffffffffffffffffffffffffffffffffff1673ffffffffffffffffffffffffffffffffffffffff1614151561015f57600080fd5b60008173ffffffffffffffffffffffffffffffffffffffff161415151561018557600080fd5b7f1f8d7d25344642d919d55999e4664aa452a5f424bc0936ceb9c2b300db7dcbd96000809054906101000a900473ffffffffffffffffffffffffffffffffffffffff1682604051808373ffffffffffffffffffffffffffffffffffffffff1673ffffffffffffffffffffffffffffffffffffffff1681526020018273ffffffffffffffffffffffffffffffffffffffff1673ffffffffffffffffffffffffffffffffffffffff1681526020019250505060405180910390a1806000806101000a81548173ffffffffffffffffffffffffffffffffffffffff021916908373ffffffffffffffffffffffffffffffffffffffff160217905550505600a165627a7a72305820e338c7184132d8c26feeb9bc4872ad3a6d759c7ea559a28c648caaa38e2873670029",
  "source": "pragma solidity ^0.4.20;\n\n/**\n *Base for contracts that specify access rules to owners contract owners.\n *\n *license GNU General Public License 3.0, http:www.gnu.org/licenses/gpl-3.0.en.html\n *@author Sangphil Kim, https://www.linkedin.com/in/sangphilkim/\n */\n\ncontract Owned {\n\n    event LogNewOwner(address oldOwner, address newOwner);\n    event LogDeleteOwner(address deleteOwner);\n\n    address public owner;\n\n    modifier onlyOwner {\n        require(owner == msg.sender);\n        _;\n    }\n\n    function Owned() public {\n        owner = msg.sender;\n    }\n\n    function changeOwner(address _newOwner) public onlyOwner {\n        require(_newOwner != 0);\n        emit LogNewOwner(owner, _newOwner);\n\n        owner = _newOwner;\n    }\n/*\n    function deleteOwner(address _deleteOwner) public onlyOwner {\n        emit LogDeleteOwner(_deleteOwner);\n\n        owner = 0x0;\n    }\n*/\n}\n",
  "sourcePath": "/Users/sangphilkim/Smart/historywall/contracts/Owned.sol",
  "compiler": {
    "name": "solc",
    "version": "0.4.21+commit.dfe3193c.Emscripten.clang"
  },
  "schemaVersion": "2.0.0",
  "updatedAt": "2018-05-02T15:23:57.354Z"
}