{
  "contractName": "Stoppable",
  "abi": [
    {
      "constant": true,
      "inputs": [],
      "name": "owner",
      "outputs": [
        {
          "name": "",
          "type": "address"
        }
      ],
      "payable": false,
      "stateMutability": "view",
      "type": "function"
    },
    {
      "constant": false,
      "inputs": [
        {
          "name": "_newOwner",
          "type": "address"
        }
      ],
      "name": "changeOwner",
      "outputs": [],
      "payable": false,
      "stateMutability": "nonpayable",
      "type": "function"
    },
    {
      "constant": true,
      "inputs": [],
      "name": "running",
      "outputs": [
        {
          "name": "",
          "type": "bool"
        }
      ],
      "payable": false,
      "stateMutability": "view",
      "type": "function"
    },
    {
      "inputs": [],
      "payable": false,
      "stateMutability": "nonpayable",
      "type": "constructor"
    },
    {
      "anonymous": false,
      "inputs": [
        {
          "indexed": false,
          "name": "switchStatus",
          "type": "bool"
        }
      ],
      "name": "LogSwitchStatus",
      "type": "event"
    },
    {
      "anonymous": false,
      "inputs": [
        {
          "indexed": false,
          "name": "oldOwner",
          "type": "address"
        },
        {
          "indexed": false,
          "name": "newOwner",
          "type": "address"
        }
      ],
      "name": "LogNewOwner",
      "type": "event"
    },
    {
      "anonymous": false,
      "inputs": [
        {
          "indexed": false,
          "name": "deleteOwner",
          "type": "address"
        }
      ],
      "name": "LogDeleteOwner",
      "type": "event"
    },
    {
      "constant": false,
      "inputs": [
        {
          "name": "_onOff",
          "type": "bool"
        }
      ],
      "name": "controlSwitch",
      "outputs": [],
      "payable": false,
      "stateMutability": "nonpayable",
      "type": "function"
    }
  ],
  "bytecode": "0x6060604052341561000f57600080fd5b336000806101000a81548173ffffffffffffffffffffffffffffffffffffffff021916908373ffffffffffffffffffffffffffffffffffffffff1602179055506001600060146101000a81548160ff0219169083151502179055506103e9806100796000396000f300606060405260043610610062576000357c0100000000000000000000000000000000000000000000000000000000900463ffffffff1680631b2093d1146100675780638da5cb5b1461008c578063a6f9dae1146100e1578063d85bd5261461011a575b600080fd5b341561007257600080fd5b61008a60048080351515906020019091905050610147565b005b341561009757600080fd5b61009f610209565b604051808273ffffffffffffffffffffffffffffffffffffffff1673ffffffffffffffffffffffffffffffffffffffff16815260200191505060405180910390f35b34156100ec57600080fd5b610118600480803573ffffffffffffffffffffffffffffffffffffffff1690602001909190505061022e565b005b341561012557600080fd5b61012d6103aa565b604051808215151515815260200191505060405180910390f35b3373ffffffffffffffffffffffffffffffffffffffff166000809054906101000a900473ffffffffffffffffffffffffffffffffffffffff1673ffffffffffffffffffffffffffffffffffffffff161415156101a257600080fd5b80600060146101000a81548160ff0219169083151502179055507febc7dab65fbc6c64ef4127ee30fe3644ecfa7f2fad7cfd9d376324f462314354600060149054906101000a900460ff16604051808215151515815260200191505060405180910390a150565b6000809054906101000a900473ffffffffffffffffffffffffffffffffffffffff1681565b3373ffffffffffffffffffffffffffffffffffffffff166000809054906101000a900473ffffffffffffffffffffffffffffffffffffffff1673ffffffffffffffffffffffffffffffffffffffff1614151561028957600080fd5b60008173ffffffffffffffffffffffffffffffffffffffff16141515156102af57600080fd5b7f1f8d7d25344642d919d55999e4664aa452a5f424bc0936ceb9c2b300db7dcbd96000809054906101000a900473ffffffffffffffffffffffffffffffffffffffff1682604051808373ffffffffffffffffffffffffffffffffffffffff1673ffffffffffffffffffffffffffffffffffffffff1681526020018273ffffffffffffffffffffffffffffffffffffffff1673ffffffffffffffffffffffffffffffffffffffff1681526020019250505060405180910390a1806000806101000a81548173ffffffffffffffffffffffffffffffffffffffff021916908373ffffffffffffffffffffffffffffffffffffffff16021790555050565b600060149054906101000a900460ff16815600a165627a7a7230582092b3a29bb26daaab1902d1d1b2d41154ce204156f2aa8b2320833673113a62410029",
  "source": "pragma solidity ^0.4.20;\n\nimport \"./Owned.sol\";\n\n/**\n  *Base for contracts that can stopped/resumed.\n  *\n  *license GNU General Public License 3.0, http:www.gnu.org/licenses/gpl-3.0.en.html\n  *@author Sangphil Kim, https://www.linkedin.com/in/sangphilkim/\n  */\n\n contract Stoppable is Owned {\n\n    event LogSwitchStatus(bool switchStatus);\n\n    bool public running;\n\n    function Stoppable() public {\n        running = true;\n    }\n\n    modifier onlyIfRunning {\n        require(running);\n        _;\n    }\n\n    function controlSwitch(bool _onOff) public onlyOwner {\n        running = _onOff;\n\n        emit LogSwitchStatus(running);\n    }\n\n }\n",
  "sourcePath": "/Users/sangphilkim/Smart/historywall/contracts/Stoppable.sol",
  "compiler": {
    "name": "solc",
    "version": "0.4.21+commit.dfe3193c.Emscripten.clang"
  },
  "schemaVersion": "2.0.0",
  "updatedAt": "2018-05-02T15:23:57.354Z"
}